{
  "_format": "hh-sol-artifact-1",
  "contractName": "PokemonFactory",
  "sourceName": "contracts/PokemonFactory.sol",
  "abi": [
    {
      "inputs": [
        {
          "internalType": "string",
          "name": "_name",
          "type": "string"
        },
        {
          "internalType": "uint256",
          "name": "_id",
          "type": "uint256"
        }
      ],
      "name": "createPokemon",
      "outputs": [],
      "stateMutability": "nonpayable",
      "type": "function"
    },
    {
      "inputs": [],
      "name": "getAllPokemons",
      "outputs": [
        {
          "components": [
            {
              "internalType": "uint256",
              "name": "id",
              "type": "uint256"
            },
            {
              "internalType": "string",
              "name": "name",
              "type": "string"
            }
          ],
          "internalType": "struct PokemonFactory.Pokemon[]",
          "name": "",
          "type": "tuple[]"
        }
      ],
      "stateMutability": "view",
      "type": "function"
    },
    {
      "inputs": [
        {
          "internalType": "uint256",
          "name": "",
          "type": "uint256"
        }
      ],
      "name": "pokemonToOwner",
      "outputs": [
        {
          "internalType": "address",
          "name": "",
          "type": "address"
        }
      ],
      "stateMutability": "view",
      "type": "function"
    }
  ],
  "bytecode": "0x608060405234801561001057600080fd5b50610a9a806100206000396000f3fe608060405234801561001057600080fd5b50600436106100415760003560e01c80630a3bd50b146100465780632f7467b3146100625780635e91679014610092575b600080fd5b610060600480360381019061005b919061047b565b6100b0565b005b61007c600480360381019061007791906104d7565b6101bd565b6040516100899190610545565b60405180910390f35b61009a6101f0565b6040516100a791906106ed565b60405180910390f35b6000604051806040016040528083815260200184815250908060018154018082558091505060019003906000526020600020906002020160009091909190915060008201518160000155602082015181600101908161010f919061091b565b505050336001600083815260200190815260200160002060006101000a81548173ffffffffffffffffffffffffffffffffffffffff021916908373ffffffffffffffffffffffffffffffffffffffff160217905550600260003373ffffffffffffffffffffffffffffffffffffffff1673ffffffffffffffffffffffffffffffffffffffff16815260200190815260200160002060008154809291906101b490610a1c565b91905055505050565b60016020528060005260406000206000915054906101000a900473ffffffffffffffffffffffffffffffffffffffff1681565b60606000805480602002602001604051908101604052809291908181526020016000905b828210156102e25783829060005260206000209060020201604051806040016040529081600082015481526020016001820180546102519061073e565b80601f016020809104026020016040519081016040528092919081815260200182805461027d9061073e565b80156102ca5780601f1061029f576101008083540402835291602001916102ca565b820191906000526020600020905b8154815290600101906020018083116102ad57829003601f168201915b50505050508152505081526020019060010190610214565b50505050905090565b6000604051905090565b600080fd5b600080fd5b600080fd5b600080fd5b6000601f19601f8301169050919050565b7f4e487b7100000000000000000000000000000000000000000000000000000000600052604160045260246000fd5b61035282610309565b810181811067ffffffffffffffff821117156103715761037061031a565b5b80604052505050565b60006103846102eb565b90506103908282610349565b919050565b600067ffffffffffffffff8211156103b0576103af61031a565b5b6103b982610309565b9050602081019050919050565b82818337600083830152505050565b60006103e86103e384610395565b61037a565b90508281526020810184848401111561040457610403610304565b5b61040f8482856103c6565b509392505050565b600082601f83011261042c5761042b6102ff565b5b813561043c8482602086016103d5565b91505092915050565b6000819050919050565b61045881610445565b811461046357600080fd5b50565b6000813590506104758161044f565b92915050565b60008060408385031215610492576104916102f5565b5b600083013567ffffffffffffffff8111156104b0576104af6102fa565b5b6104bc85828601610417565b92505060206104cd85828601610466565b9150509250929050565b6000602082840312156104ed576104ec6102f5565b5b60006104fb84828501610466565b91505092915050565b600073ffffffffffffffffffffffffffffffffffffffff82169050919050565b600061052f82610504565b9050919050565b61053f81610524565b82525050565b600060208201905061055a6000830184610536565b92915050565b600081519050919050565b600082825260208201905092915050565b6000819050602082019050919050565b61059581610445565b82525050565b600081519050919050565b600082825260208201905092915050565b60005b838110156105d55780820151818401526020810190506105ba565b60008484015250505050565b60006105ec8261059b565b6105f681856105a6565b93506106068185602086016105b7565b61060f81610309565b840191505092915050565b6000604083016000830151610632600086018261058c565b506020830151848203602086015261064a82826105e1565b9150508091505092915050565b6000610663838361061a565b905092915050565b6000602082019050919050565b600061068382610560565b61068d818561056b565b93508360208202850161069f8561057c565b8060005b858110156106db57848403895281516106bc8582610657565b94506106c78361066b565b925060208a019950506001810190506106a3565b50829750879550505050505092915050565b600060208201905081810360008301526107078184610678565b905092915050565b7f4e487b7100000000000000000000000000000000000000000000000000000000600052602260045260246000fd5b6000600282049050600182168061075657607f821691505b6020821081036107695761076861070f565b5b50919050565b60008190508160005260206000209050919050565b60006020601f8301049050919050565b600082821b905092915050565b6000600883026107d17fffffffffffffffffffffffffffffffffffffffffffffffffffffffffffffffff82610794565b6107db8683610794565b95508019841693508086168417925050509392505050565b6000819050919050565b600061081861081361080e84610445565b6107f3565b610445565b9050919050565b6000819050919050565b610832836107fd565b61084661083e8261081f565b8484546107a1565b825550505050565b600090565b61085b61084e565b610866818484610829565b505050565b5b8181101561088a5761087f600082610853565b60018101905061086c565b5050565b601f8211156108cf576108a08161076f565b6108a984610784565b810160208510156108b8578190505b6108cc6108c485610784565b83018261086b565b50505b505050565b600082821c905092915050565b60006108f2600019846008026108d4565b1980831691505092915050565b600061090b83836108e1565b9150826002028217905092915050565b6109248261059b565b67ffffffffffffffff81111561093d5761093c61031a565b5b610947825461073e565b61095282828561088e565b600060209050601f8311600181146109855760008415610973578287015190505b61097d85826108ff565b8655506109e5565b601f1984166109938661076f565b60005b828110156109bb57848901518255600182019150602085019450602081019050610996565b868310156109d857848901516109d4601f8916826108e1565b8355505b6001600288020188555050505b505050505050565b7f4e487b7100000000000000000000000000000000000000000000000000000000600052601160045260246000fd5b6000610a2782610445565b91507fffffffffffffffffffffffffffffffffffffffffffffffffffffffffffffffff8203610a5957610a586109ed565b5b60018201905091905056fea264697066735822122075953d172848323a1c3a2921a1d1439dde0081f676a4491302a8ab7ecb3597d464736f6c63430008120033",
  "linkReferences": {},
  "deployedLinkReferences": {}
}